{
  "contractName": "ProxyDelegate",
  "abi": [
    {
      "inputs": [
        {
          "internalType": "address",
          "name": "delegateAddress",
          "type": "address"
        }
      ],
      "payable": false,
      "stateMutability": "nonpayable",
      "type": "constructor"
    },
    {
      "anonymous": false,
      "inputs": [
        {
          "indexed": false,
          "internalType": "bytes",
          "name": "result",
          "type": "bytes"
        }
      ],
      "name": "LogResult",
      "type": "event"
    },
    {
      "payable": false,
      "stateMutability": "nonpayable",
      "type": "fallback"
    },
    {
      "constant": true,
      "inputs": [],
      "name": "delegate",
      "outputs": [
        {
          "internalType": "address",
          "name": "",
          "type": "address"
        }
      ],
      "payable": false,
      "stateMutability": "view",
      "type": "function"
    },
    {
      "constant": true,
      "inputs": [],
      "name": "owner",
      "outputs": [
        {
          "internalType": "address",
          "name": "",
          "type": "address"
        }
      ],
      "payable": false,
      "stateMutability": "view",
      "type": "function"
    },
    {
      "constant": true,
      "inputs": [],
      "name": "version",
      "outputs": [
        {
          "internalType": "uint256",
          "name": "",
          "type": "uint256"
        }
      ],
      "payable": false,
      "stateMutability": "view",
      "type": "function"
    }
  ],
  "bytecode": "0x608060405234801561001057600080fd5b506040516103fb3803806103fb8339818101604052602081101561003357600080fd5b8101908080519060200190929190505050336000806101000a81548173ffffffffffffffffffffffffffffffffffffffff021916908373ffffffffffffffffffffffffffffffffffffffff16021790555080600160006101000a81548173ffffffffffffffffffffffffffffffffffffffff021916908373ffffffffffffffffffffffffffffffffffffffff16021790555050610326806100d56000396000f3fe608060405234801561001057600080fd5b50600436106100415760003560e01c806354fd4d50146101ee5780638da5cb5b1461020c578063c89e436114610256575b60006060600160009054906101000a900473ffffffffffffffffffffffffffffffffffffffff1673ffffffffffffffffffffffffffffffffffffffff16600036604051808383808284378083019250505092505050600060405180830381855af49150503d80600081146100d1576040519150601f19603f3d011682016040523d82523d6000602084013e6100d6565b606091505b50915091508161014e576040517f08c379a00000000000000000000000000000000000000000000000000000000081526004018080602001828103825260148152602001807f65787465726e616c2063616c6c206661696c656400000000000000000000000081525060200191505060405180910390fd5b7f958c0193cea72acb1ba51b31092fb4edff6e5bf84a2289db7e76bea413645df3816040518080602001828103825283818151815260200191508051906020019080838360005b838110156101b0578082015181840152602081019050610195565b50505050905090810190601f1680156101dd5780820380516001836020036101000a031916815260200191505b509250505060405180910390a15050005b6101f66102a0565b6040518082815260200191505060405180910390f35b6102146102a6565b604051808273ffffffffffffffffffffffffffffffffffffffff1673ffffffffffffffffffffffffffffffffffffffff16815260200191505060405180910390f35b61025e6102cb565b604051808273ffffffffffffffffffffffffffffffffffffffff1673ffffffffffffffffffffffffffffffffffffffff16815260200191505060405180910390f35b60025481565b6000809054906101000a900473ffffffffffffffffffffffffffffffffffffffff1681565b600160009054906101000a900473ffffffffffffffffffffffffffffffffffffffff168156fea265627a7a7231582048aad8585ef1a00f67c87de3441728862ba38c7000f027893c89be171b7ee33964736f6c63430005100032",
  "source": "pragma solidity ^0.5.0;\n\ncontract ProxyDelegate {\n    address public owner;\n    address public delegate;  // contract to delegate calls to\n    uint256 public version;\n\n    event LogResult(bytes result);\n\n    constructor(address delegateAddress) public {\n        owner = msg.sender;\n        delegate = delegateAddress;\n    }\n\n    function() external {\n        (bool success, bytes memory returnData) = delegate.delegatecall(msg.data);\n        require(success, \"external call failed\");\n        emit LogResult(returnData);\n    }\n}",
  "sourcePath": "/home/wanja/advanced/proxy-delegate/contracts/ProxyDelegate.sol",
  "compiler": {
    "name": "solc",
    "version": "0.5.16+commit.9c3226ce.Emscripten.clang"
  },
  "schemaVersion": "3.2.0",
  "updatedAt": "2020-07-11T02:59:37.788Z",
  "devdoc": {
    "methods": {}
  },
  "userdoc": {
    "methods": {}
  }
}